{
  "_format": "hh-sol-artifact-1",
  "contractName": "uniswapSwap",
  "sourceName": "contracts/UniswapCon.sol",
  "abi": [
    {
      "inputs": [
        {
          "internalType": "address",
          "name": "_swapRouter",
          "type": "address"
        }
      ],
      "stateMutability": "nonpayable",
      "type": "constructor"
    },
    {
      "anonymous": false,
      "inputs": [
        {
          "indexed": false,
          "internalType": "address",
          "name": "token",
          "type": "address"
        },
        {
          "indexed": false,
          "internalType": "uint256",
          "name": "amount",
          "type": "uint256"
        }
      ],
      "name": "TokenBought",
      "type": "event"
    },
    {
      "inputs": [],
      "name": "swapRouter",
      "outputs": [
        {
          "internalType": "contract ISwapRouter",
          "name": "",
          "type": "address"
        }
      ],
      "stateMutability": "view",
      "type": "function"
    },
    {
      "inputs": [
        {
          "internalType": "address",
          "name": "tokenIn",
          "type": "address"
        },
        {
          "internalType": "address",
          "name": "tokenOut",
          "type": "address"
        },
        {
          "internalType": "uint256",
          "name": "amountIn",
          "type": "uint256"
        }
      ],
      "name": "testBuyToken",
      "outputs": [
        {
          "internalType": "uint256",
          "name": "",
          "type": "uint256"
        }
      ],
      "stateMutability": "nonpayable",
      "type": "function"
    }
  ],
  "bytecode": "0x60a060405234801561001057600080fd5b50604051610a08380380610a08833981810160405281019061003291906100cf565b8073ffffffffffffffffffffffffffffffffffffffff1660808173ffffffffffffffffffffffffffffffffffffffff1681525050506100fc565b600080fd5b600073ffffffffffffffffffffffffffffffffffffffff82169050919050565b600061009c82610071565b9050919050565b6100ac81610091565b81146100b757600080fd5b50565b6000815190506100c9816100a3565b92915050565b6000602082840312156100e5576100e461006c565b5b60006100f3848285016100ba565b91505092915050565b6080516108e56101236000396000818160a10152818160cb015261019d01526108e56000f3fe608060405234801561001057600080fd5b50600436106100365760003560e01c8063b72be52f1461003b578063c31c9c071461006b575b600080fd5b61005560048036038101906100509190610468565b610089565b60405161006291906104ca565b60405180910390f35b61007361009f565b6040516100809190610544565b60405180910390f35b60006100968484846100c3565b90509392505050565b7f000000000000000000000000000000000000000000000000000000000000000081565b60006100f0847f00000000000000000000000000000000000000000000000000000000000000008461027a565b60006040518061010001604052808673ffffffffffffffffffffffffffffffffffffffff1681526020018573ffffffffffffffffffffffffffffffffffffffff1681526020016101f462ffffff1681526020013073ffffffffffffffffffffffffffffffffffffffff168152602001600f4261016c919061058e565b815260200184815260200160018152602001600073ffffffffffffffffffffffffffffffffffffffff1681525090507f000000000000000000000000000000000000000000000000000000000000000073ffffffffffffffffffffffffffffffffffffffff1663414bf389826040518263ffffffff1660e01b81526004016101f491906106af565b6020604051808303816000875af1158015610213573d6000803e3d6000fd5b505050506040513d601f19601f8201168201806040525081019061023791906106e0565b91507fa3a187cfc249a33f6c4046e8d418886eea8564f9dd214a32aa5ba08d9602b543848360405161026a92919061071c565b60405180910390a1509392505050565b6000808473ffffffffffffffffffffffffffffffffffffffff1663095ea7b360e01b85856040516024016102af92919061071c565b604051602081830303815290604052907bffffffffffffffffffffffffffffffffffffffffffffffffffffffff19166020820180517bffffffffffffffffffffffffffffffffffffffffffffffffffffffff838183161783525050505060405161031991906107b6565b6000604051808303816000865af19150503d8060008114610356576040519150601f19603f3d011682016040523d82523d6000602084013e61035b565b606091505b509150915081801561038957506000815114806103885750808060200190518101906103879190610805565b5b5b6103c8576040517f08c379a00000000000000000000000000000000000000000000000000000000081526004016103bf9061088f565b60405180910390fd5b5050505050565b600080fd5b600073ffffffffffffffffffffffffffffffffffffffff82169050919050565b60006103ff826103d4565b9050919050565b61040f816103f4565b811461041a57600080fd5b50565b60008135905061042c81610406565b92915050565b6000819050919050565b61044581610432565b811461045057600080fd5b50565b6000813590506104628161043c565b92915050565b600080600060608486031215610481576104806103cf565b5b600061048f8682870161041d565b93505060206104a08682870161041d565b92505060406104b186828701610453565b9150509250925092565b6104c481610432565b82525050565b60006020820190506104df60008301846104bb565b92915050565b6000819050919050565b600061050a610505610500846103d4565b6104e5565b6103d4565b9050919050565b600061051c826104ef565b9050919050565b600061052e82610511565b9050919050565b61053e81610523565b82525050565b60006020820190506105596000830184610535565b92915050565b7f4e487b7100000000000000000000000000000000000000000000000000000000600052601160045260246000fd5b600061059982610432565b91506105a483610432565b92508282019050808211156105bc576105bb61055f565b5b92915050565b6105cb816103f4565b82525050565b600062ffffff82169050919050565b6105e9816105d1565b82525050565b6105f881610432565b82525050565b610607816103d4565b82525050565b6101008201600082015161062460008501826105c2565b50602082015161063760208501826105c2565b50604082015161064a60408501826105e0565b50606082015161065d60608501826105c2565b50608082015161067060808501826105ef565b5060a082015161068360a08501826105ef565b5060c082015161069660c08501826105ef565b5060e08201516106a960e08501826105fe565b50505050565b6000610100820190506106c5600083018461060d565b92915050565b6000815190506106da8161043c565b92915050565b6000602082840312156106f6576106f56103cf565b5b6000610704848285016106cb565b91505092915050565b610716816103f4565b82525050565b6000604082019050610731600083018561070d565b61073e60208301846104bb565b9392505050565b600081519050919050565b600081905092915050565b60005b8381101561077957808201518184015260208101905061075e565b60008484015250505050565b600061079082610745565b61079a8185610750565b93506107aa81856020860161075b565b80840191505092915050565b60006107c28284610785565b915081905092915050565b60008115159050919050565b6107e2816107cd565b81146107ed57600080fd5b50565b6000815190506107ff816107d9565b92915050565b60006020828403121561081b5761081a6103cf565b5b6000610829848285016107f0565b91505092915050565b600082825260208201905092915050565b7f5341000000000000000000000000000000000000000000000000000000000000600082015250565b6000610879600283610832565b915061088482610843565b602082019050919050565b600060208201905081810360008301526108a88161086c565b905091905056fea2646970667358221220f16261680ab015b4186ea6a4ab0cc95321039c5cbd5181d01761eb0fd11d5b6464736f6c63430008140033",
  "linkReferences": {},
  "deployedLinkReferences": {}
}